{"abi":[{"type":"constructor","inputs":[{"name":"txOrigin","type":"address","internalType":"address"},{"name":"txGasPrice","type":"uint256","internalType":"uint256"},{"name":"blockCoinbase","type":"address","internalType":"address"},{"name":"blockNumber","type":"uint256","internalType":"uint256"},{"name":"blockTimestamp","type":"uint256","internalType":"uint256"},{"name":"blockGasLimit","type":"uint256","internalType":"uint256"},{"name":"blockPrevRandao","type":"uint256","internalType":"uint256"}],"stateMutability":"nonpayable"},{"type":"function","name":"call","inputs":[],"outputs":[],"stateMutability":"nonpayable"},{"type":"error","name":"EnvironmentMismatch","inputs":[{"name":"expected","type":"tuple","internalType":"struct SimEnvOptsStructs.SimEnvOpts","components":[{"name":"txOrigin","type":"address","internalType":"address"},{"name":"txGasPrice","type":"uint256","internalType":"uint256"},{"name":"blockCoinbase","type":"address","internalType":"address"},{"name":"blockNumber","type":"uint256","internalType":"uint256"},{"name":"blockTimestamp","type":"uint256","internalType":"uint256"},{"name":"blockGasLimit","type":"uint256","internalType":"uint256"},{"name":"blockPrevRandao","type":"uint256","internalType":"uint256"}]},{"name":"actual","type":"tuple","internalType":"struct SimEnvOptsStructs.SimEnvOpts","components":[{"name":"txOrigin","type":"address","internalType":"address"},{"name":"txGasPrice","type":"uint256","internalType":"uint256"},{"name":"blockCoinbase","type":"address","internalType":"address"},{"name":"blockNumber","type":"uint256","internalType":"uint256"},{"name":"blockTimestamp","type":"uint256","internalType":"uint256"},{"name":"blockGasLimit","type":"uint256","internalType":"uint256"},{"name":"blockPrevRandao","type":"uint256","internalType":"uint256"}]},{"name":"explanation","type":"string","internalType":"string"}]}],"bytecode":{"object":"0x608060405234801561000f575f5ffd5b50604051610ead380380610ead83398181016040528101906100319190610156565b86868686868686604051610044906100b8565b6100549796959493929190610211565b604051809103905ff08015801561006d573d5f5f3e3d5ffd5b505f5f6101000a81548173ffffffffffffffffffffffffffffffffffffffff021916908373ffffffffffffffffffffffffffffffffffffffff1602179055505050505050505061027e565b610b408061036d83390190565b5f5ffd5b5f73ffffffffffffffffffffffffffffffffffffffff82169050919050565b5f6100f2826100c9565b9050919050565b610102816100e8565b811461010c575f5ffd5b50565b5f8151905061011d816100f9565b92915050565b5f819050919050565b61013581610123565b811461013f575f5ffd5b50565b5f815190506101508161012c565b92915050565b5f5f5f5f5f5f5f60e0888a031215610171576101706100c5565b5b5f61017e8a828b0161010f565b975050602061018f8a828b01610142565b96505060406101a08a828b0161010f565b95505060606101b18a828b01610142565b94505060806101c28a828b01610142565b93505060a06101d38a828b01610142565b92505060c06101e48a828b01610142565b91505092959891949750929550565b6101fc816100e8565b82525050565b61020b81610123565b82525050565b5f60e0820190506102245f83018a6101f3565b6102316020830189610202565b61023e60408301886101f3565b61024b6060830187610202565b6102586080830186610202565b61026560a0830185610202565b61027260c0830184610202565b98975050505050505050565b60e38061028a5f395ff3fe6080604052348015600e575f5ffd5b50600436106026575f3560e01c806328b5e32b14602a575b5f5ffd5b60306032565b005b5f5f9054906101000a900473ffffffffffffffffffffffffffffffffffffffff1673ffffffffffffffffffffffffffffffffffffffff1663f8a8fd6d6040518163ffffffff1660e01b81526004015f604051808303815f87803b1580156096575f5ffd5b505af115801560a7573d5f5f3e3d5ffd5b5050505056fea2646970667358221220034c5d0d32da7bd82a83a8645a84a4e576d66b930b06a5a2376feebb603681e664736f6c634300081e0033608060405234801561000f575f5ffd5b50604051610b40380380610b408339818101604052810190610031919061017e565b865f5f015f6101000a81548173ffffffffffffffffffffffffffffffffffffffff021916908373ffffffffffffffffffffffffffffffffffffffff160217905550855f60010181905550845f6002015f6101000a81548173ffffffffffffffffffffffffffffffffffffffff021916908373ffffffffffffffffffffffffffffffffffffffff160217905550835f60030181905550825f60040181905550815f60050181905550805f600601819055505050505050505061021b565b5f5ffd5b5f73ffffffffffffffffffffffffffffffffffffffff82169050919050565b5f61011a826100f1565b9050919050565b61012a81610110565b8114610134575f5ffd5b50565b5f8151905061014581610121565b92915050565b5f819050919050565b61015d8161014b565b8114610167575f5ffd5b50565b5f8151905061017881610154565b92915050565b5f5f5f5f5f5f5f60e0888a031215610199576101986100ed565b5b5f6101a68a828b01610137565b97505060206101b78a828b0161016a565b96505060406101c88a828b01610137565b95505060606101d98a828b0161016a565b94505060806101ea8a828b0161016a565b93505060a06101fb8a828b0161016a565b92505060c061020c8a828b0161016a565b91505092959891949750929550565b610918806102285f395ff3fe608060405234801561000f575f5ffd5b5060043610610029575f3560e01c8063f8a8fd6d1461002d575b5f5ffd5b610035610037565b005b5f5f6040518060e00160405290815f82015f9054906101000a900473ffffffffffffffffffffffffffffffffffffffff1673ffffffffffffffffffffffffffffffffffffffff1673ffffffffffffffffffffffffffffffffffffffff16815260200160018201548152602001600282015f9054906101000a900473ffffffffffffffffffffffffffffffffffffffff1673ffffffffffffffffffffffffffffffffffffffff1673ffffffffffffffffffffffffffffffffffffffff1681526020016003820154815260200160048201548152602001600582015481526020016006820154815250509050610129610434565b32815f019073ffffffffffffffffffffffffffffffffffffffff16908173ffffffffffffffffffffffffffffffffffffffff16815250503a81602001818152505041816040019073ffffffffffffffffffffffffffffffffffffffff16908173ffffffffffffffffffffffffffffffffffffffff16815250504381606001818152505042816080018181525050458160a0018181525050448160c00181815250505f600190505f6040518060400160405280601381526020017f4d69736d617463686564206669656c64733a20000000000000000000000000008152509050835f015173ffffffffffffffffffffffffffffffffffffffff16835f015173ffffffffffffffffffffffffffffffffffffffff1614610267575f915080604051602001610255919061050e565b60405160208183030381529060405290505b836020015183602001511461029c575f91508060405160200161028a9190610559565b60405160208183030381529060405290505b836040015173ffffffffffffffffffffffffffffffffffffffff16836040015173ffffffffffffffffffffffffffffffffffffffff16146102fd575f9150806040516020016102eb91906105a4565b60405160208183030381529060405290505b8360600151836060015114610332575f91508060405160200161032091906105ef565b60405160208183030381529060405290505b8360800151836080015114610367575f915080604051602001610355919061063a565b60405160208183030381529060405290505b8360a001518360a001511461039c575f91508060405160200161038a9190610685565b60405160208183030381529060405290505b8360c001518360c00151146103d1575f9150806040516020016103bf91906106d0565b60405160208183030381529060405290505b81610417578383826040517fe7fd0aab00000000000000000000000000000000000000000000000000000000815260040161040e93929190610830565b60405180910390fd5b60075f8154809291906104299061089b565b919050555050505050565b6040518060e001604052805f73ffffffffffffffffffffffffffffffffffffffff1681526020015f81526020015f73ffffffffffffffffffffffffffffffffffffffff1681526020015f81526020015f81526020015f81526020015f81525090565b5f81519050919050565b5f81905092915050565b8281835e5f83830152505050565b5f6104c282610496565b6104cc81856104a0565b93506104dc8185602086016104aa565b80840191505092915050565b7f74784f726967696e2c2000000000000000000000000000000000000000000000815250565b5f61051982846104b8565b9150610524826104e8565b600a8201915081905092915050565b7f747847617350726963652c200000000000000000000000000000000000000000815250565b5f61056482846104b8565b915061056f82610533565b600c8201915081905092915050565b7f626c6f636b436f696e626173652c200000000000000000000000000000000000815250565b5f6105af82846104b8565b91506105ba8261057e565b600f8201915081905092915050565b7f626c6f636b4e756d6265722c2000000000000000000000000000000000000000815250565b5f6105fa82846104b8565b9150610605826105c9565b600d8201915081905092915050565b7f626c6f636b54696d657374616d702c2000000000000000000000000000000000815250565b5f61064582846104b8565b915061065082610614565b60108201915081905092915050565b7f626c6f636b4761734c696d69742c200000000000000000000000000000000000815250565b5f61069082846104b8565b915061069b8261065f565b600f8201915081905092915050565b7f626c6f636b5072657652616e64616f2c20000000000000000000000000000000815250565b5f6106db82846104b8565b91506106e6826106aa565b60118201915081905092915050565b5f73ffffffffffffffffffffffffffffffffffffffff82169050919050565b5f61071e826106f5565b9050919050565b61072e81610714565b82525050565b5f819050919050565b61074681610734565b82525050565b60e082015f8201516107605f850182610725565b506020820151610773602085018261073d565b5060408201516107866040850182610725565b506060820151610799606085018261073d565b5060808201516107ac608085018261073d565b5060a08201516107bf60a085018261073d565b5060c08201516107d260c085018261073d565b50505050565b5f82825260208201905092915050565b5f601f19601f8301169050919050565b5f61080282610496565b61080c81856107d8565b935061081c8185602086016104aa565b610825816107e8565b840191505092915050565b5f6101e0820190506108445f83018661074c565b61085160e083018561074c565b8181036101c083015261086481846107f8565b9050949350505050565b7f4e487b71000000000000000000000000000000000000000000000000000000005f52601160045260245ffd5b5f6108a582610734565b91507fffffffffffffffffffffffffffffffffffffffffffffffffffffffffffffffff82036108d7576108d661086e565b5b60018201905091905056fea2646970667358221220eb6c986fd33dc61bb93734548731c7d1c04f9b48c5c9649c0a7a9b7d8f71612e64736f6c634300081e0033","linkReferences":{}},"methodIdentifiers":{"call()":"28b5e32b"},"id":20}