{"abi":[{"type":"constructor","inputs":[{"name":"_implementation","type":"address","internalType":"address"}],"stateMutability":"nonpayable"},{"type":"fallback","stateMutability":"payable"},{"type":"receive","stateMutability":"payable"},{"type":"function","name":"fallbackWasCalled","inputs":[],"outputs":[{"name":"result","type":"bool","internalType":"bool"}],"stateMutability":"view"},{"type":"function","name":"runStateUpdatesCall","inputs":[{"name":"types","type":"uint8[]","internalType":"enum StateUpdateType[]"},{"name":"args","type":"bytes[]","internalType":"bytes[]"}],"outputs":[],"stateMutability":"nonpayable"},{"type":"error","name":"InvalidArguments","inputs":[]},{"type":"error","name":"RevertingContext","inputs":[{"name":"index","type":"uint256","internalType":"uint256"},{"name":"target","type":"address","internalType":"address"},{"name":"revertData","type":"bytes","internalType":"bytes"},{"name":"callargs","type":"bytes","internalType":"bytes"}]}],"bytecode":{"object":"0x6080604052348015600e575f5ffd5b50604051610f32380380610f328339818101604052810190602e919060ad565b807f96d8ea8ab34935626cad61e29511d513907fd7c186676bae1b82974066723cbf555060d3565b5f5ffd5b5f73ffffffffffffffffffffffffffffffffffffffff82169050919050565b5f608182605a565b9050919050565b608f816079565b81146098575f5ffd5b50565b5f8151905060a7816088565b92915050565b5f6020828403121560bf5760be6056565b5b5f60ca84828501609b565b91505092915050565b610e52806100e05f395ff3fe60806040526004361061002c575f3560e01c806335636672146100995780637a888dbc146100c357610033565b3661003357005b7f242ffd5c5678a014b50279a5c080b8776eeb4383dff0782c0b229c029f801303546040527f96d8ea8ab34935626cad61e29511d513907fd7c186676bae1b82974066723cbf54365f5f375f5f365f845af43d5f5f3e805f8114610095573d5ff35b3d5ffd5b3480156100a4575f5ffd5b506100ad6100eb565b6040516100ba9190610549565b60405180910390f35b3480156100ce575f5ffd5b506100e960048036038101906100e49190610874565b610113565b005b5f7f242ffd5c5678a014b50279a5c080b8776eeb4383dff0782c0b229c029f80130354905090565b61011d828261017b565b5a7f242ffd5c5678a014b50279a5c080b8776eeb4383dff0782c0b229c029f801303545a6107d0818403101561017457816001177f242ffd5c5678a014b50279a5c080b8776eeb4383dff0782c0b229c029f801303555b5050505050565b80518251146101b6576040517f5f6f132c00000000000000000000000000000000000000000000000000000000815260040160405180910390fd5b5f5f90505b825181101561052a575f8382815181106101d8576101d76108ea565b5b602002602001015190505f8383815181106101f6576101f56108ea565b5b602002602001015190505f600681111561021357610212610917565b5b82600681111561022657610225610917565b5b0361024f575f5f828060200190518101906102419190610977565b91509150808255505061051b565b6001600681111561026357610262610917565b5b82600681111561027657610275610917565b5b03610358575f5f5f838060200190518101906102929190610abe565b9250925092505f5f5a90505f5f845160208601878986f191508161034e575f3d90505f8167ffffffffffffffff8111156102cf576102ce610587565b5b6040519080825280601f01601f1916602001820160405280156103015781602001600182028036833780820191505090505b509050815f602083013e898782876040517f493f09c40000000000000000000000000000000000000000000000000000000081526004016103459493929190610bab565b60405180910390fd5b505050505061051a565b6002600681111561036c5761036b610917565b5b82600681111561037f5761037e610917565b5b036103a8575f818060200190518101906103999190610bfc565b9050805160208201a050610519565b600360068111156103bc576103bb610917565b5b8260068111156103cf576103ce610917565b5b036103fd575f5f828060200190518101906103ea9190610c43565b9150915080825160208401a15050610518565b6004600681111561041157610410610917565b5b82600681111561042457610423610917565b5b03610457575f5f5f838060200190518101906104409190610c9d565b9250925092508082845160208601a2505050610517565b6005600681111561046b5761046a610917565b5b82600681111561047e5761047d610917565b5b036104b6575f5f5f5f8480602001905181019061049b9190610d09565b9350935093509350808284865160208801a350505050610516565b6006808111156104c9576104c8610917565b5b8260068111156104dc576104db610917565b5b03610515575f5f5f5f5f858060200190518101906104fa9190610d89565b9450945094509450945080828486885160208a01a450505050505b5b5b5b5b5b5b505080806001019150506101bb565b505050565b5f8115159050919050565b6105438161052f565b82525050565b5f60208201905061055c5f83018461053a565b92915050565b5f604051905090565b5f5ffd5b5f5ffd5b5f5ffd5b5f601f19601f8301169050919050565b7f4e487b71000000000000000000000000000000000000000000000000000000005f52604160045260245ffd5b6105bd82610577565b810181811067ffffffffffffffff821117156105dc576105db610587565b5b80604052505050565b5f6105ee610562565b90506105fa82826105b4565b919050565b5f67ffffffffffffffff82111561061957610618610587565b5b602082029050602081019050919050565b5f5ffd5b6007811061063a575f5ffd5b50565b5f8135905061064b8161062e565b92915050565b5f61066361065e846105ff565b6105e5565b905080838252602082019050602084028301858111156106865761068561062a565b5b835b818110156106af578061069b888261063d565b845260208401935050602081019050610688565b5050509392505050565b5f82601f8301126106cd576106cc610573565b5b81356106dd848260208601610651565b91505092915050565b5f67ffffffffffffffff821115610700576106ff610587565b5b602082029050602081019050919050565b5f5ffd5b5f67ffffffffffffffff82111561072f5761072e610587565b5b61073882610577565b9050602081019050919050565b828183375f83830152505050565b5f61076561076084610715565b6105e5565b90508281526020810184848401111561078157610780610711565b5b61078c848285610745565b509392505050565b5f82601f8301126107a8576107a7610573565b5b81356107b8848260208601610753565b91505092915050565b5f6107d36107ce846106e6565b6105e5565b905080838252602082019050602084028301858111156107f6576107f561062a565b5b835b8181101561083d57803567ffffffffffffffff81111561081b5761081a610573565b5b8086016108288982610794565b855260208501945050506020810190506107f8565b5050509392505050565b5f82601f83011261085b5761085a610573565b5b813561086b8482602086016107c1565b91505092915050565b5f5f6040838503121561088a5761088961056b565b5b5f83013567ffffffffffffffff8111156108a7576108a661056f565b5b6108b3858286016106b9565b925050602083013567ffffffffffffffff8111156108d4576108d361056f565b5b6108e085828601610847565b9150509250929050565b7f4e487b71000000000000000000000000000000000000000000000000000000005f52603260045260245ffd5b7f4e487b71000000000000000000000000000000000000000000000000000000005f52602160045260245ffd5b5f819050919050565b61095681610944565b8114610960575f5ffd5b50565b5f815190506109718161094d565b92915050565b5f5f6040838503121561098d5761098c61056b565b5b5f61099a85828601610963565b92505060206109ab85828601610963565b9150509250929050565b5f73ffffffffffffffffffffffffffffffffffffffff82169050919050565b5f6109de826109b5565b9050919050565b6109ee816109d4565b81146109f8575f5ffd5b50565b5f81519050610a09816109e5565b92915050565b5f819050919050565b610a2181610a0f565b8114610a2b575f5ffd5b50565b5f81519050610a3c81610a18565b92915050565b8281835e5f83830152505050565b5f610a62610a5d84610715565b6105e5565b905082815260208101848484011115610a7e57610a7d610711565b5b610a89848285610a42565b509392505050565b5f82601f830112610aa557610aa4610573565b5b8151610ab5848260208601610a50565b91505092915050565b5f5f5f60608486031215610ad557610ad461056b565b5b5f610ae2868287016109fb565b9350506020610af386828701610a2e565b925050604084015167ffffffffffffffff811115610b1457610b1361056f565b5b610b2086828701610a91565b9150509250925092565b610b3381610a0f565b82525050565b5f610b43826109b5565b9050919050565b610b5381610b39565b82525050565b5f81519050919050565b5f82825260208201905092915050565b5f610b7d82610b59565b610b878185610b63565b9350610b97818560208601610a42565b610ba081610577565b840191505092915050565b5f608082019050610bbe5f830187610b2a565b610bcb6020830186610b4a565b8181036040830152610bdd8185610b73565b90508181036060830152610bf18184610b73565b905095945050505050565b5f60208284031215610c1157610c1061056b565b5b5f82015167ffffffffffffffff811115610c2e57610c2d61056f565b5b610c3a84828501610a91565b91505092915050565b5f5f60408385031215610c5957610c5861056b565b5b5f83015167ffffffffffffffff811115610c7657610c7561056f565b5b610c8285828601610a91565b9250506020610c9385828601610963565b9150509250929050565b5f5f5f60608486031215610cb457610cb361056b565b5b5f84015167ffffffffffffffff811115610cd157610cd061056f565b5b610cdd86828701610a91565b9350506020610cee86828701610963565b9250506040610cff86828701610963565b9150509250925092565b5f5f5f5f60808587031215610d2157610d2061056b565b5b5f85015167ffffffffffffffff811115610d3e57610d3d61056f565b5b610d4a87828801610a91565b9450506020610d5b87828801610963565b9350506040610d6c87828801610963565b9250506060610d7d87828801610963565b91505092959194509250565b5f5f5f5f5f60a08688031215610da257610da161056b565b5b5f86015167ffffffffffffffff811115610dbf57610dbe61056f565b5b610dcb88828901610a91565b9550506020610ddc88828901610963565b9450506040610ded88828901610963565b9350506060610dfe88828901610963565b9250506080610e0f88828901610963565b915050929550929590935056fea2646970667358221220d1712b697e43f3d031de022b7de44a2f97665d43336e00c67ead94b5b7b0bf9564736f6c634300081e0033","linkReferences":{}},"methodIdentifiers":{"fallbackWasCalled()":"35636672","runStateUpdatesCall(uint8[],bytes[])":"7a888dbc"},"id":20}