{
    "abi": [
        {
            "type": "constructor",
            "inputs": [
                {
                    "name": "_implementation",
                    "type": "address",
                    "internalType": "address"
                }
            ],
            "stateMutability": "nonpayable"
        },
        {
            "type": "fallback",
            "stateMutability": "payable"
        },
        {
            "type": "receive",
            "stateMutability": "payable"
        },
        {
            "type": "function",
            "name": "runStateUpdatesCall",
            "inputs": [
                {
                    "name": "types",
                    "type": "uint8[]",
                    "internalType": "enum StateUpdateType[]"
                },
                {
                    "name": "args",
                    "type": "bytes[]",
                    "internalType": "bytes[]"
                }
            ],
            "outputs": [],
            "stateMutability": "nonpayable"
        },
        {
            "type": "error",
            "name": "InvalidArguments",
            "inputs": []
        },
        {
            "type": "error",
            "name": "RevertingContext",
            "inputs": [
                {
                    "name": "index",
                    "type": "uint256",
                    "internalType": "uint256"
                },
                {
                    "name": "target",
                    "type": "address",
                    "internalType": "address"
                },
                {
                    "name": "revertData",
                    "type": "bytes",
                    "internalType": "bytes"
                },
                {
                    "name": "callargs",
                    "type": "bytes",
                    "internalType": "bytes"
                }
            ]
        }
    ],
    "bytecode": {
        "object": "0x6080604052348015600e575f5ffd5b50604051610e23380380610e238339818101604052810190602e919060ad565b807f96d8ea8ab34935626cad61e29511d513907fd7c186676bae1b82974066723cbf555060d3565b5f5ffd5b5f73ffffffffffffffffffffffffffffffffffffffff82169050919050565b5f608182605a565b9050919050565b608f816079565b81146098575f5ffd5b50565b5f8151905060a7816088565b92915050565b5f6020828403121560bf5760be6056565b5b5f60ca84828501609b565b91505092915050565b610d43806100e05f395ff3fe608060405260043610610021575f3560e01c80637a888dbc1461006957610028565b3661002857005b7f96d8ea8ab34935626cad61e29511d513907fd7c186676bae1b82974066723cbf54365f5f375f5f365f845af43d5f5f3e805f8114610065573d5ff35b3d5ffd5b348015610074575f5ffd5b5061008f600480360381019061008a9190610765565b610091565b005b61009b828261009f565b5050565b80518251146100da576040517f5f6f132c00000000000000000000000000000000000000000000000000000000815260040160405180910390fd5b5f5f90505b825181101561044e575f8382815181106100fc576100fb6107db565b5b602002602001015190505f83838151811061011a576101196107db565b5b602002602001015190505f600681111561013757610136610808565b5b82600681111561014a57610149610808565b5b03610173575f5f828060200190518101906101659190610868565b91509150808255505061043f565b6001600681111561018757610186610808565b5b82600681111561019a57610199610808565b5b0361027c575f5f5f838060200190518101906101b691906109af565b9250925092505f5f5a90505f5f845160208601878986f1915081610272575f3d90505f8167ffffffffffffffff8111156101f3576101f2610478565b5b6040519080825280601f01601f1916602001820160405280156102255781602001600182028036833780820191505090505b509050815f602083013e898782876040517f493f09c40000000000000000000000000000000000000000000000000000000081526004016102699493929190610a9c565b60405180910390fd5b505050505061043e565b600260068111156102905761028f610808565b5b8260068111156102a3576102a2610808565b5b036102cc575f818060200190518101906102bd9190610aed565b9050805160208201a05061043d565b600360068111156102e0576102df610808565b5b8260068111156102f3576102f2610808565b5b03610321575f5f8280602001905181019061030e9190610b34565b9150915080825160208401a1505061043c565b6004600681111561033557610334610808565b5b82600681111561034857610347610808565b5b0361037b575f5f5f838060200190518101906103649190610b8e565b9250925092508082845160208601a250505061043b565b6005600681111561038f5761038e610808565b5b8260068111156103a2576103a1610808565b5b036103da575f5f5f5f848060200190518101906103bf9190610bfa565b9350935093509350808284865160208801a35050505061043a565b6006808111156103ed576103ec610808565b5b826006811115610400576103ff610808565b5b03610439575f5f5f5f5f8580602001905181019061041e9190610c7a565b9450945094509450945080828486885160208a01a450505050505b5b5b5b5b5b5b505080806001019150506100df565b505050565b5f604051905090565b5f5ffd5b5f5ffd5b5f5ffd5b5f601f19601f8301169050919050565b7f4e487b71000000000000000000000000000000000000000000000000000000005f52604160045260245ffd5b6104ae82610468565b810181811067ffffffffffffffff821117156104cd576104cc610478565b5b80604052505050565b5f6104df610453565b90506104eb82826104a5565b919050565b5f67ffffffffffffffff82111561050a57610509610478565b5b602082029050602081019050919050565b5f5ffd5b6007811061052b575f5ffd5b50565b5f8135905061053c8161051f565b92915050565b5f61055461054f846104f0565b6104d6565b905080838252602082019050602084028301858111156105775761057661051b565b5b835b818110156105a0578061058c888261052e565b845260208401935050602081019050610579565b5050509392505050565b5f82601f8301126105be576105bd610464565b5b81356105ce848260208601610542565b91505092915050565b5f67ffffffffffffffff8211156105f1576105f0610478565b5b602082029050602081019050919050565b5f5ffd5b5f67ffffffffffffffff8211156106205761061f610478565b5b61062982610468565b9050602081019050919050565b828183375f83830152505050565b5f61065661065184610606565b6104d6565b90508281526020810184848401111561067257610671610602565b5b61067d848285610636565b509392505050565b5f82601f83011261069957610698610464565b5b81356106a9848260208601610644565b91505092915050565b5f6106c46106bf846105d7565b6104d6565b905080838252602082019050602084028301858111156106e7576106e661051b565b5b835b8181101561072e57803567ffffffffffffffff81111561070c5761070b610464565b5b8086016107198982610685565b855260208501945050506020810190506106e9565b5050509392505050565b5f82601f83011261074c5761074b610464565b5b813561075c8482602086016106b2565b91505092915050565b5f5f6040838503121561077b5761077a61045c565b5b5f83013567ffffffffffffffff81111561079857610797610460565b5b6107a4858286016105aa565b925050602083013567ffffffffffffffff8111156107c5576107c4610460565b5b6107d185828601610738565b9150509250929050565b7f4e487b71000000000000000000000000000000000000000000000000000000005f52603260045260245ffd5b7f4e487b71000000000000000000000000000000000000000000000000000000005f52602160045260245ffd5b5f819050919050565b61084781610835565b8114610851575f5ffd5b50565b5f815190506108628161083e565b92915050565b5f5f6040838503121561087e5761087d61045c565b5b5f61088b85828601610854565b925050602061089c85828601610854565b9150509250929050565b5f73ffffffffffffffffffffffffffffffffffffffff82169050919050565b5f6108cf826108a6565b9050919050565b6108df816108c5565b81146108e9575f5ffd5b50565b5f815190506108fa816108d6565b92915050565b5f819050919050565b61091281610900565b811461091c575f5ffd5b50565b5f8151905061092d81610909565b92915050565b8281835e5f83830152505050565b5f61095361094e84610606565b6104d6565b90508281526020810184848401111561096f5761096e610602565b5b61097a848285610933565b509392505050565b5f82601f83011261099657610995610464565b5b81516109a6848260208601610941565b91505092915050565b5f5f5f606084860312156109c6576109c561045c565b5b5f6109d3868287016108ec565b93505060206109e48682870161091f565b925050604084015167ffffffffffffffff811115610a0557610a04610460565b5b610a1186828701610982565b9150509250925092565b610a2481610900565b82525050565b5f610a34826108a6565b9050919050565b610a4481610a2a565b82525050565b5f81519050919050565b5f82825260208201905092915050565b5f610a6e82610a4a565b610a788185610a54565b9350610a88818560208601610933565b610a9181610468565b840191505092915050565b5f608082019050610aaf5f830187610a1b565b610abc6020830186610a3b565b8181036040830152610ace8185610a64565b90508181036060830152610ae28184610a64565b905095945050505050565b5f60208284031215610b0257610b0161045c565b5b5f82015167ffffffffffffffff811115610b1f57610b1e610460565b5b610b2b84828501610982565b91505092915050565b5f5f60408385031215610b4a57610b4961045c565b5b5f83015167ffffffffffffffff811115610b6757610b66610460565b5b610b7385828601610982565b9250506020610b8485828601610854565b9150509250929050565b5f5f5f60608486031215610ba557610ba461045c565b5b5f84015167ffffffffffffffff811115610bc257610bc1610460565b5b610bce86828701610982565b9350506020610bdf86828701610854565b9250506040610bf086828701610854565b9150509250925092565b5f5f5f5f60808587031215610c1257610c1161045c565b5b5f85015167ffffffffffffffff811115610c2f57610c2e610460565b5b610c3b87828801610982565b9450506020610c4c87828801610854565b9350506040610c5d87828801610854565b9250506060610c6e87828801610854565b91505092959194509250565b5f5f5f5f5f60a08688031215610c9357610c9261045c565b5b5f86015167ffffffffffffffff811115610cb057610caf610460565b5b610cbc88828901610982565b9550506020610ccd88828901610854565b9450506040610cde88828901610854565b9350506060610cef88828901610854565b9250506080610d0088828901610854565b915050929550929590935056fea2646970667358221220a4f2ba697a0f7b307ea74327b7e9bc63fb8738d585ef33b3f4457bae6c2611c564736f6c634300081e0033",
        "linkReferences": {}
    },
    "methodIdentifiers": {
        "runStateUpdatesCall(uint8[],bytes[])": "7a888dbc"
    },
    "id": 1
}